{
  "_format": "hh-sol-artifact-1",
  "contractName": "PollingDapp",
  "sourceName": "contracts/PollingDapp.sol",
  "abi": [
    {
      "inputs": [],
      "stateMutability": "nonpayable",
      "type": "constructor"
    },
    {
      "inputs": [
        {
          "internalType": "address",
          "name": "pubkey",
          "type": "address"
        }
      ],
      "name": "AlreadyReg",
      "outputs": [
        {
          "internalType": "bool",
          "name": "",
          "type": "bool"
        }
      ],
      "stateMutability": "view",
      "type": "function"
    },
    {
      "inputs": [
        {
          "internalType": "address",
          "name": "pubkey",
          "type": "address"
        }
      ],
      "name": "CheckAlreadyParticipated",
      "outputs": [
        {
          "internalType": "bool",
          "name": "",
          "type": "bool"
        }
      ],
      "stateMutability": "view",
      "type": "function"
    },
    {
      "inputs": [],
      "name": "GetData",
      "outputs": [
        {
          "components": [
            {
              "internalType": "string",
              "name": "Name",
              "type": "string"
            },
            {
              "internalType": "uint256",
              "name": "count",
              "type": "uint256"
            },
            {
              "internalType": "address",
              "name": "from",
              "type": "address"
            },
            {
              "internalType": "string",
              "name": "VotingRec",
              "type": "string"
            },
            {
              "internalType": "string",
              "name": "imageLink",
              "type": "string"
            }
          ],
          "internalType": "struct PollingDapp.Participent[]",
          "name": "",
          "type": "tuple[]"
        }
      ],
      "stateMutability": "view",
      "type": "function"
    },
    {
      "inputs": [],
      "name": "GetNews",
      "outputs": [
        {
          "components": [
            {
              "internalType": "string",
              "name": "title",
              "type": "string"
            },
            {
              "internalType": "uint256",
              "name": "timestamp",
              "type": "uint256"
            },
            {
              "internalType": "string",
              "name": "Description",
              "type": "string"
            }
          ],
          "internalType": "struct PollingDapp.News[]",
          "name": "",
          "type": "tuple[]"
        }
      ],
      "stateMutability": "view",
      "type": "function"
    },
    {
      "inputs": [
        {
          "internalType": "string",
          "name": "Name",
          "type": "string"
        },
        {
          "internalType": "address",
          "name": "pk",
          "type": "address"
        },
        {
          "internalType": "string",
          "name": "VotingRec",
          "type": "string"
        },
        {
          "internalType": "string",
          "name": "link",
          "type": "string"
        }
      ],
      "name": "InputParticipent",
      "outputs": [],
      "stateMutability": "payable",
      "type": "function"
    },
    {
      "inputs": [
        {
          "internalType": "string",
          "name": "title",
          "type": "string"
        },
        {
          "internalType": "string",
          "name": "Des",
          "type": "string"
        }
      ],
      "name": "PostNews",
      "outputs": [],
      "stateMutability": "nonpayable",
      "type": "function"
    },
    {
      "inputs": [
        {
          "internalType": "address",
          "name": "PartiAdd",
          "type": "address"
        }
      ],
      "name": "SelectVote",
      "outputs": [],
      "stateMutability": "nonpayable",
      "type": "function"
    }
  ],
  "bytecode": "0x608060405234801561001057600080fd5b50336000806101000a81548173ffffffffffffffffffffffffffffffffffffffff021916908373ffffffffffffffffffffffffffffffffffffffff1602179055506117ca806100606000396000f3fe6080604052600436106100705760003560e01c80637eb126a21161004e5780637eb126a2146100e75780638e7e12f814610110578063d98b7c4514610139578063fbda2d031461017657610070565b80631df1e2eb146100755780633e89f0ca1461009157806376b8e528146100bc575b600080fd5b61008f600480360381019061008a9190610ddb565b6101b3565b005b34801561009d57600080fd5b506100a6610465565b6040516100b39190611047565b60405180910390f35b3480156100c857600080fd5b506100d16105f2565b6040516100de91906111be565b60405180910390f35b3480156100f357600080fd5b5061010e600480360381019061010991906111e0565b610867565b005b34801561011c57600080fd5b5061013760048036038101906101329190611258565b610941565b005b34801561014557600080fd5b50610160600480360381019061015b9190611258565b610ac7565b60405161016d91906112a0565b60405180910390f35b34801561018257600080fd5b5061019d60048036038101906101989190611258565b610b75565b6040516101aa91906112a0565b60405180910390f35b60008054906101000a900473ffffffffffffffffffffffffffffffffffffffff1673ffffffffffffffffffffffffffffffffffffffff163373ffffffffffffffffffffffffffffffffffffffff161461020b57600080fd5b61021483610b75565b610253576040517f08c379a000000000000000000000000000000000000000000000000000000000815260040161024a90611318565b60405180910390fd5b60003411610296576040517f08c379a000000000000000000000000000000000000000000000000000000000815260040161028d90611384565b60405180910390fd5b6000808054906101000a900473ffffffffffffffffffffffffffffffffffffffff1673ffffffffffffffffffffffffffffffffffffffff166108fc349081150290604051600060405180830381858888f193505050501580156102fd573d6000803e3d6000fd5b5060026040518060a001604052808781526020018381526020018673ffffffffffffffffffffffffffffffffffffffff168152602001858152602001848152509080600181540180825580915050600190039060005260206000209060050201600090919091909150600082015181600001908161037b91906115b0565b506020820151816001015560408201518160020160006101000a81548173ffffffffffffffffffffffffffffffffffffffff021916908373ffffffffffffffffffffffffffffffffffffffff16021790555060608201518160030190816103e291906115b0565b5060808201518160040190816103f891906115b0565b5050506004849080600181540180825580915050600190039060005260206000200160009091909190916101000a81548173ffffffffffffffffffffffffffffffffffffffff021916908373ffffffffffffffffffffffffffffffffffffffff1602179055505050505050565b60606001805480602002602001604051908101604052809291908181526020016000905b828210156105e957838290600052602060002090600302016040518060600160405290816000820180546104bc906113d3565b80601f01602080910402602001604051908101604052809291908181526020018280546104e8906113d3565b80156105355780601f1061050a57610100808354040283529160200191610535565b820191906000526020600020905b81548152906001019060200180831161051857829003601f168201915b5050505050815260200160018201548152602001600282018054610558906113d3565b80601f0160208091040260200160405190810160405280929190818152602001828054610584906113d3565b80156105d15780601f106105a6576101008083540402835291602001916105d1565b820191906000526020600020905b8154815290600101906020018083116105b457829003601f168201915b50505050508152505081526020019060010190610489565b50505050905090565b60606002805480602002602001604051908101604052809291908181526020016000905b8282101561085e57838290600052602060002090600502016040518060a0016040529081600082018054610649906113d3565b80601f0160208091040260200160405190810160405280929190818152602001828054610675906113d3565b80156106c25780601f10610697576101008083540402835291602001916106c2565b820191906000526020600020905b8154815290600101906020018083116106a557829003601f168201915b50505050508152602001600182015481526020016002820160009054906101000a900473ffffffffffffffffffffffffffffffffffffffff1673ffffffffffffffffffffffffffffffffffffffff1673ffffffffffffffffffffffffffffffffffffffff16815260200160038201805461073b906113d3565b80601f0160208091040260200160405190810160405280929190818152602001828054610767906113d3565b80156107b45780601f10610789576101008083540402835291602001916107b4565b820191906000526020600020905b81548152906001019060200180831161079757829003601f168201915b505050505081526020016004820180546107cd906113d3565b80601f01602080910402602001604051908101604052809291908181526020018280546107f9906113d3565b80156108465780601f1061081b57610100808354040283529160200191610846565b820191906000526020600020905b81548152906001019060200180831161082957829003601f168201915b50505050508152505081526020019060010190610616565b50505050905090565b60008054906101000a900473ffffffffffffffffffffffffffffffffffffffff1673ffffffffffffffffffffffffffffffffffffffff163373ffffffffffffffffffffffffffffffffffffffff16146108bf57600080fd5b60016040518060600160405280848152602001428152602001838152509080600181540180825580915050600190039060005260206000209060030201600090919091909150600082015181600001908161091a91906115b0565b5060208201518160010155604082015181600201908161093a91906115b0565b5050505050565b61094a33610ac7565b610989576040517f08c379a0000000000000000000000000000000000000000000000000000000008152600401610980906116ce565b60405180910390fd5b60005b600280549050811015610a60578173ffffffffffffffffffffffffffffffffffffffff16600282815481106109c4576109c36116ee565b5b906000526020600020906005020160020160009054906101000a900473ffffffffffffffffffffffffffffffffffffffff1673ffffffffffffffffffffffffffffffffffffffff1603610a4d5760028181548110610a2557610a246116ee565b5b90600052602060002090600502016001016000815480929190610a479061174c565b91905055505b8080610a589061174c565b91505061098c565b506003339080600181540180825580915050600190039060005260206000200160009091909190916101000a81548173ffffffffffffffffffffffffffffffffffffffff021916908373ffffffffffffffffffffffffffffffffffffffff16021790555050565b600080600090505b600380549050811015610b6a578273ffffffffffffffffffffffffffffffffffffffff1660038281548110610b0757610b066116ee565b5b9060005260206000200160009054906101000a900473ffffffffffffffffffffffffffffffffffffffff1673ffffffffffffffffffffffffffffffffffffffff1603610b57576000915050610b70565b8080610b629061174c565b915050610acf565b50600190505b919050565b600080600090505b600480549050811015610c18578273ffffffffffffffffffffffffffffffffffffffff1660048281548110610bb557610bb46116ee565b5b9060005260206000200160009054906101000a900473ffffffffffffffffffffffffffffffffffffffff1673ffffffffffffffffffffffffffffffffffffffff1603610c05576000915050610c1e565b8080610c109061174c565b915050610b7d565b50600190505b919050565b6000604051905090565b600080fd5b600080fd5b600080fd5b600080fd5b6000601f19601f8301169050919050565b7f4e487b7100000000000000000000000000000000000000000000000000000000600052604160045260246000fd5b610c8a82610c41565b810181811067ffffffffffffffff82111715610ca957610ca8610c52565b5b80604052505050565b6000610cbc610c23565b9050610cc88282610c81565b919050565b600067ffffffffffffffff821115610ce857610ce7610c52565b5b610cf182610c41565b9050602081019050919050565b82818337600083830152505050565b6000610d20610d1b84610ccd565b610cb2565b905082815260208101848484011115610d3c57610d3b610c3c565b5b610d47848285610cfe565b509392505050565b600082601f830112610d6457610d63610c37565b5b8135610d74848260208601610d0d565b91505092915050565b600073ffffffffffffffffffffffffffffffffffffffff82169050919050565b6000610da882610d7d565b9050919050565b610db881610d9d565b8114610dc357600080fd5b50565b600081359050610dd581610daf565b92915050565b60008060008060808587031215610df557610df4610c2d565b5b600085013567ffffffffffffffff811115610e1357610e12610c32565b5b610e1f87828801610d4f565b9450506020610e3087828801610dc6565b935050604085013567ffffffffffffffff811115610e5157610e50610c32565b5b610e5d87828801610d4f565b925050606085013567ffffffffffffffff811115610e7e57610e7d610c32565b5b610e8a87828801610d4f565b91505092959194509250565b600081519050919050565b600082825260208201905092915050565b6000819050602082019050919050565b600081519050919050565b600082825260208201905092915050565b60005b83811015610efc578082015181840152602081019050610ee1565b60008484015250505050565b6000610f1382610ec2565b610f1d8185610ecd565b9350610f2d818560208601610ede565b610f3681610c41565b840191505092915050565b6000819050919050565b610f5481610f41565b82525050565b60006060830160008301518482036000860152610f778282610f08565b9150506020830151610f8c6020860182610f4b565b5060408301518482036040860152610fa48282610f08565b9150508091505092915050565b6000610fbd8383610f5a565b905092915050565b6000602082019050919050565b6000610fdd82610e96565b610fe78185610ea1565b935083602082028501610ff985610eb2565b8060005b8581101561103557848403895281516110168582610fb1565b945061102183610fc5565b925060208a01995050600181019050610ffd565b50829750879550505050505092915050565b600060208201905081810360008301526110618184610fd2565b905092915050565b600081519050919050565b600082825260208201905092915050565b6000819050602082019050919050565b61109e81610d9d565b82525050565b600060a08301600083015184820360008601526110c18282610f08565b91505060208301516110d66020860182610f4b565b5060408301516110e96040860182611095565b50606083015184820360608601526111018282610f08565b9150506080830151848203608086015261111b8282610f08565b9150508091505092915050565b600061113483836110a4565b905092915050565b6000602082019050919050565b600061115482611069565b61115e8185611074565b93508360208202850161117085611085565b8060005b858110156111ac578484038952815161118d8582611128565b94506111988361113c565b925060208a01995050600181019050611174565b50829750879550505050505092915050565b600060208201905081810360008301526111d88184611149565b905092915050565b600080604083850312156111f7576111f6610c2d565b5b600083013567ffffffffffffffff81111561121557611214610c32565b5b61122185828601610d4f565b925050602083013567ffffffffffffffff81111561124257611241610c32565b5b61124e85828601610d4f565b9150509250929050565b60006020828403121561126e5761126d610c2d565b5b600061127c84828501610dc6565b91505092915050565b60008115159050919050565b61129a81611285565b82525050565b60006020820190506112b56000830184611291565b92915050565b600082825260208201905092915050565b7f416c726561647920526567000000000000000000000000000000000000000000600082015250565b6000611302600b836112bb565b915061130d826112cc565b602082019050919050565b60006020820190508181036000830152611331816112f5565b9050919050565b7f706c656173652070617920303e00000000000000000000000000000000000000600082015250565b600061136e600d836112bb565b915061137982611338565b602082019050919050565b6000602082019050818103600083015261139d81611361565b9050919050565b7f4e487b7100000000000000000000000000000000000000000000000000000000600052602260045260246000fd5b600060028204905060018216806113eb57607f821691505b6020821081036113fe576113fd6113a4565b5b50919050565b60008190508160005260206000209050919050565b60006020601f8301049050919050565b600082821b905092915050565b6000600883026114667fffffffffffffffffffffffffffffffffffffffffffffffffffffffffffffffff82611429565b6114708683611429565b95508019841693508086168417925050509392505050565b6000819050919050565b60006114ad6114a86114a384610f41565b611488565b610f41565b9050919050565b6000819050919050565b6114c783611492565b6114db6114d3826114b4565b848454611436565b825550505050565b600090565b6114f06114e3565b6114fb8184846114be565b505050565b5b8181101561151f576115146000826114e8565b600181019050611501565b5050565b601f8211156115645761153581611404565b61153e84611419565b8101602085101561154d578190505b61156161155985611419565b830182611500565b50505b505050565b600082821c905092915050565b600061158760001984600802611569565b1980831691505092915050565b60006115a08383611576565b9150826002028217905092915050565b6115b982610ec2565b67ffffffffffffffff8111156115d2576115d1610c52565b5b6115dc82546113d3565b6115e7828285611523565b600060209050601f83116001811461161a5760008415611608578287015190505b6116128582611594565b86555061167a565b601f19841661162886611404565b60005b828110156116505784890151825560018201915060208501945060208101905061162b565b8683101561166d5784890151611669601f891682611576565b8355505b6001600288020188555050505b505050505050565b7f416c726561647920564f74656400000000000000000000000000000000000000600082015250565b60006116b8600d836112bb565b91506116c382611682565b602082019050919050565b600060208201905081810360008301526116e7816116ab565b9050919050565b7f4e487b7100000000000000000000000000000000000000000000000000000000600052603260045260246000fd5b7f4e487b7100000000000000000000000000000000000000000000000000000000600052601160045260246000fd5b600061175782610f41565b91507fffffffffffffffffffffffffffffffffffffffffffffffffffffffffffffffff82036117895761178861171d565b5b60018201905091905056fea264697066735822122074b9461d1501d7c863a8c6caa006ec0731d3876a9f74a63a68e7b04dd2ab90a264736f6c63430008110033",
  "linkReferences": {},
  "deployedLinkReferences": {}
}